:020000040800F2
:100000000040022025210008852A00088F2A0008C8
:10001000992A0008A32A0008AD2A000861110008E7
:10002000611100086111000861110008B920000881
:10003000B72A00086111000861110008991E000824
:1000400061110008611100086111000861110008C8
:1000500061110008611100086D1E0008611100089F
:1000600061110008611100086111000861110008A8
:100070006111000861110008611100086111000898
:100080006111000861110008611100086111000888
:100090006111000861110008611100086111000878
:1000A0006111000861110008611100086111000868
:1000B0006111000861110008611100086111000858
:1001000080B500AF024B01221A70C046BD4680BDCB
:100110000700002080B500AF024B00221A70C046D5
:10012000BD4680BD0700002080B500AF024B1B78A4
:100130001800BD4680BDC0460700002080B582B0D3
:1001400000AFFB1D05221A70FFF7EEFF031E03D060
:10015000FB1D04221A701EE0124B1B69013303D1F0
:10016000FB1D00221A7016E00E4B1B69022B03DDEB
:10017000FB1D02221A700EE00A4B1B69012B03DCE7
:10018000FB1D01221A7006E0064B1B69022B02DCE4
:10019000FB1D03221A70FB1D1B781800BD4602B020
:1001A00080BDC0462400002080B582B000AFFB1D9A
:1001B00000221A700C4B9A780C4B59690C4B890031
:1001C000CB585B799A4206D900F0AEFCFB1D0322A6
:1001D0001A7000F01BF8054BFA1D12781A76C0460B
:1001E000BD4602B080BDC046400000202400002073
:1001F000D424000880B500AF034B01221A7600F02A
:1002000005F8C046BD4680BD2400002080B582B000
:1002100000AF00F046FC031C1A1C3B1D1A803B1D5E
:100220005B785BB21A00184B5A613B1D5B785BB27E
:100230001A00164B9200D258134BDA603B1D5B78C4
:100240005BB21A00124B9200D2580F4B5A600E4B01
:10025000DB689B79052B0FD13B1D5B785BB21800E7
:1002600000F0EAF83B1D5B785BB21A00074B920086
:10027000D3583A1D12785A71034B00225A76C04661
:10028000BD4602B080BDC04624000020D424000832
:10029000C424000880B584B000AF0200FB1D1A70B2
:1002A000FB1D1B78002B02D0264B1B6800E00023AF
:1002B000FB60FB1D1B78002B0ED0224B9B689B79AB
:1002C000032B09D01F4B9B6801229A711D4B1B69A0
:1002D0005BB2180000F0CCF81A4B1B68002B0AD058
:1002E000184B1B68DB7D022B05D1164B1B695BB2DB
:1002F000180000F0EDFF134B5B68DB7D022B05D18E
:10030000104B5B695BB2180000F0C2FF0D4BDA685E
:100310000C4B9A600B4B5A680A4B1A60094B5A698E
:10032000084B1A61074B9B6802229A71054B1B69A7
:100330005BB2180000F0BEF9FB681800BD4604B0BF
:1003400080BDC0462400002080B500AF084B9B68EC
:1003500003229A71064B1B695BB2180000F0F2F998
:10036000034B03221A76FFF751FFC046BD4680BDFE
:100370002400002080B584B000AF0200FB1D1A707D
:10038000FB1D00229A560A4B9200D358FB60FB6873
:1003900001229A71FB1D1B785BB2180000F09EF8D9
:1003A000044B01225A76C046BD4604B080BDC0460B
:1003B000D42400082400002080B582B000AF391D8D
:1003C0000D4B022208009B180222190002F014FFB4
:1003D0003A1D00231178FF200140FF2083430B4387
:1003E0005278FF210A40120204490B401343181CA3
:1003F000BD4602B080BDC04640000020FF00FFFFA8
:1004000080B500AF0B4B1B695BB2180000F09AF986
:10041000084B9B681B79002B04D0064B9B68052278
:100420009A7103E0034B9B6800229A71C046BD4657
:1004300080BDC0462400002080B584B000AF02001B
:10044000FB1D1A70FB1D00229A56084B9200D358D0
:10045000FB60FB6800221A60FB1D1B785BB2180072
:1004600001F0ACFDC046BD4604B080BDD4240008F8
:1004700080B584B000AF0200FB1D1A70154B1B78CD
:100480000133DAB2134B1A70124B1B78FB60FB1D61
:1004900000229A56104B9200D2580B217B185279A9
:1004A0001A700C4BFA68520079180978D154094A2D
:1004B000FB685B00D3180133FA1D12781A70FA68D2
:1004C000044B1100180000F047FAC046BD4604B0C6
:1004D00080BDC04640000020D424000880B584B010
:1004E00000AF0200FB1D1A70214B1B780133DAB2FA
:1004F0001F4B1A701E4B1B78FB60FB1D00229A5687
:100500001C4B9200D2580B217B18527D1A707B181D
:100510001B785BB2DB185AB27B181B781649C95C92
:100520000139C8B21449C8541349CB5C5BB20121EC
:100530000B405BB213435AB20A217B181A700C4B62
:10054000FA68520079180978D154094AFB685B00AF
:10055000D3180133FA1D12781A70FA68044B11008F
:10056000180000F0F9F9C046BD4604B080BDC04691
:1005700040000020C42400084C00002090B587B043
:1005800000AF0200FB1D1A70FB1D1B785BB201223D
:100590009A401523FB181A7014217B1800221A7038
:1005A0003D4BDB683B613D4BDB68FB603C4B002215
:1005B0001A703C4B00221A603A4B3A695A60394B28
:1005C00000229A60374BFA68DA60364B01225242B9
:1005D0001A61344B012252425A61324B00221A7680
:1005E000304B00225A767C18032000F015F90300E6
:1005F00023701623FB1800221A801BE016217B189B
:100600001B88294AD35C1522BA1812781340DBB232
:10061000002B09D07B181B885BB21422BC18180071
:1006200000F0FAF80300237016217B181A887B1853
:1006300001321A801622BB181B88012BDED9BB1889
:1006400000221A801EE016217B181B88174AD35CF3
:100650001522BA1812781340DBB2002B0CD07B188D
:100660001A88134B9200D358BB60BB6801221A75DD
:10067000BB68180000F07AFA16217B181A887B18DC
:1006800001321A801623FB181B88002BDBD0C046D2
:10069000C046BD4607B090BDC4240008D42400085D
:1006A00040000020240000200C270008102700082C
:1006B0006C25000880B584B000AF0200FB1D1A70E5
:1006C000FB1D00229A561C4B9200D3581B69FB60FD
:1006D000FB68002B2CD0FB689B78002B28D1FB6893
:1006E00001229A70FB1D00229A56144B9200D35897
:1006F0005A79FB685A70FB681B785BB2DB185AB2F8
:10070000FB681B780E49C95C0139C8B20C49C85452
:100710000B49CB5C5BB201210B405BB2134359B276
:10072000FB1D00229A56054B9200D358CAB25A714B
:10073000C046BD4604B080BDC4240008D4240008CF
:100740004C00002080B584B000AF0200FB1D1A7081
:10075000FB1D00229A560E4B9200D3581B69FB607A
:10076000FB68002B0FD0FB689B78012B0BD1FB683B
:1007700000229A70FB1D00229A56064B9200D35815
:10078000FA6852785A71C046BD4604B080BDC04672
:10079000C4240008D424000880B500AF00F0E2FBB8
:1007A000031E01D000F000FC074B9B681B68002B68
:1007B00005D0054B1B695BB2180000F0A3FF00F0E9
:1007C0002BFEC046BD4680BD2400002080B582B00F
:1007D00000AFFB1D00221A7000F0C4FB031E04D002
:1007E00000F0E2FBFB1D13221A700A4B9B681B688A
:1007F000002B08D0074B1B695BB2180000F082FF8A
:10080000FB1D06221A7000F0EBFBC046BD4602B08D
:1008100080BDC0462400002080B586B000AF020035
:10082000FB1D1A701723FB1804221A70FB1D0022EF
:100830009A56194B9200D3583B61FB1D00229A56E1
:10084000164B9200D358FB603B691A79FB689B7D7D
:100850009A4219D23B691B79002B05D13B690522CD
:100860009A710F4B01225A761723FB1800221A7037
:10087000FB1D1B785BB21800FFF730FE3B691B794C
:100880000133DAB23B691A711723FB181B78180081
:10089000BD4606B080BDC046D4240008C42400086C
:1008A0002400002080B584B000AF0200FB1D1A7048
:1008B000BB1D0A1C1A700F217B1800221A707B18AE
:1008C0001B781800BD4604B080BD80B586B000AF6F
:1008D000786039607B681B781A000F2313407B61B6
:1008E0003B681B781A000F2313403B617B69012290
:1008F00013407A69520817498A5C9B1AFB60FB68AF
:1009000001221340FB607B690E2213407B617A69F0
:10091000FB6813437B613B69012213403A6952082B
:100920000C498A5C9B1ABB60BB6801221340BB6008
:100930003B690E2213403B613A69BB6813433B613C
:100940007A693B699A429B415B42DBB21800BD4623
:1009500006B080BD4C00002090B585B000AF786037
:1009600039603B685B08FB6028E03B685B007A68A5
:10097000D31808243A191000190002231A0002F0B3
:100980003BFCFB685B007A68D1183B685B007A68C7
:10099000D318180002231A0002F02EFCFB685B003B
:1009A0007A68D2183B191000190002231A0002F0CD
:1009B00023FCFB683B60FB685B08FB603B68012B2A
:1009C0000CD9FB685B007A68D0183B685B007A68DA
:1009D000D3181900FFF779FF031EC6D1C046BD46E4
:1009E00005B090BD90B587B000AF786039607B6886
:1009F0001B783B6148E07B690133FB60FA683B6927
:100A00009A420ED87B695B007A68D018FB685B005D
:100A10007A68D3181900FFF758FF031E01D0FB684E
:100A20007B613B685B007A68D0187B695B007A6801
:100A3000D3181900FFF749FF031E2DD03B685B0058
:100A40007A68D31808243A191000190002231A00F2
:100A500002F0D2FB7B695B007A68D1183B685B00CF
:100A60007A68D318180002231A0002F0C5FB7B69CC
:100A70005B007A68D2183B191000190002231A0093
:100A800002F0BAFB7B693B603B685B007B617A6983
:100A90003B699A42AFD900E0C046C046BD4607B0A8
:100AA00090BD80B584B000AF1D4B1B785A1ED1B2EB
:100AB0001B4A1170FB600123BB603900184B0222F6
:100AC00008009B180222190002F096FB1448BB682C
:100AD0005900134AFB685B004018D3180222190022
:100AE00002F08AFBBA680E4B11001800FFF77AFF7C
:100AF0003B1D3A0012881A803A1D00231178FF200E
:100B00000140FF2083430B435278FF210A40120229
:100B100004490B401343181CBD4604B080BDC046B9
:100B200040000020FF00FFFF80B500AF094B1A69AD
:100B3000084B5B699A4209D0064BDB6801229A7127
:100B4000044B5B695BB21800FFF792FCC046BD46E0
:100B500080BDC0462400002080B500AF024B0122BA
:100B60001A70C046BD4680BD0800002080B586B022
:100B700000AF78607B681B681B68FB60FB685B6983
:100B80007B6100233B617B69002B12D1FB687A6893
:100B90005A61FB687A689A617B6800229A607B6878
:100BA0009A687B685A604BE07B693B617B695B6854
:100BB0007B617B69002B05D07B691A697B681B69A7
:100BC0009A42F1D97B687A695A607B683A699A607F
:100BD0007B69002B02D07B697A689A603B69002BA5
:100BE00003D03B697A685A6002E0FB687A685A6110
:100BF000FB689B691A69FB681B699A4210D27B6883
:100C00001A69FB681B699A4206D87B681A69FB68F7
:100C10009B691B699A4213D2FB687A689A610FE05C
:100C20007B681A69FB681B699A4209D97B681A6953
:100C3000FB689B691B699A4202D2FB687A689A61D9
:100C4000C046BD4606B080BD80B584B000AF7860B8
:100C50007B681B681B68FB60FB685B697A689A426B
:100C600003D17B685A68FB685A61FB689B697A68A4
:100C70009A4203D17B685A68FB689A617B685B681B
:100C8000002B04D07B685B687A6892689A607B6806
:100C90009B68002B04D07B689B687A6852685A6016
:100CA000FB689B69002B03D1FB685A69FB689A615A
:100CB000C046BD4604B080BD80B588B000AF786046
:100CC000354B1B78002B63D07B68DB685A1C7B6834
:100CD000DA607B68DA687B681B689A4258D17B6867
:100CE0001B69BB61BB690133BB617B685B68BA6927
:100CF0009A4201D90023BB617B68BA691A617B689B
:100D00000022DA607B689B69FB61FB69002B3FD0A6
:100D1000FB691B69BA699A423AD17B68180000F0F6
:100D20003DF803003B613B69002B31D03B69FB611F
:100D3000FB695B68FB60FB691B685B68BB60FA6909
:100D4000BB6810009847FB69DB68002B18D0FB6973
:100D50001A69FB69DB68D3187B617B685B687A6919
:100D60009A4205D97B685B687A69D31A013B7B613B
:100D7000FB697A691A61FB691800FFF7F7FE02E068
:100D8000FB6900221A75FB68FB61FB69002BCFD160
:100D9000C046BD4608B080BD0800002080B58AB0BE
:100DA00000AF78607B689B69FB6100237B62FB6915
:100DB000002B49D0FB693B62FB691B69BB611723B0
:100DC000FB1800221A701723FB1801221A703B6AC5
:100DD0003B613B6A5B683B623B6A002B04D03B6A29
:100DE0001B69BA699A42EED0FB699B683B623B691A
:100DF0005B68FB603B6A002B02D03B6AFA685A6072
:100E0000FB68002B02D0FB683A6A9A607B685B69DA
:100E1000FA699A4202D17B68FA685A611723FB1873
:100E20001B78012B02D17B689B697B62FB68002BDE
:100E300003D07B68FA689A6103E07B685A697B6833
:100E40009A613B6900225A607B6A1800BD460AB06D
:100E500080BDC04680B582B000AF7860FFF750F922
:100E60007B685B689847FFF755F9C046BD4602B0FE
:100E700080BD90B585B000AF78600F217B1800224F
:100E80001A707B681B795BB27C181800FFF7C4FCF2
:100E900003002370C046BD4605B090BD80B582B04A
:100EA00000AFFB1D00221A7000F05CF8031E02D098
:100EB000FB1D13221A70BB1D044A12781A70BB1D49
:100EC0001B785BB21800BD4602B080BD090000204F
:100ED00090B585B000AF0200FB1D1A700F243B19BE
:100EE00000221A703B191B78002B06D1FFF726F958
:100EF000031E02D03B1907221A700F23FB181B7820
:100F0000002B0DD1084BFA1D12781A70FB1D1B78AF
:100F10005BB21800FFF732FBFFF71EFEFFF76AF91E
:100F2000C046BD4605B090BD0900002080B582B026
:100F300000AF0200FB1D1A7001F087F8C046BD46E5
:100F400002B080BD80B582B000AF0200FB1D1A70F8
:100F5000FB1D1B781800FFF7E9FFC046BD4602B035
:100F600080BDC04680B582B000AF0C4B1B78012B12
:100F700007D00B4B1B68002B03D10A4B1B68002BBF
:100F800003D0FB1D01221A7002E0FB1D00221A7023
:100F9000FB1D1B781800BD4602B080BD100000206C
:100FA000180000201400002080B500AF074B00227D
:100FB0001A70074B00221A60064B00221A60064B7B
:100FC0001A68064B1A60C046BD4680BD100000205E
:100FD00014000020180000201C0000200C0000203D
:100FE00080B582B000AFFB1D00221A70FFF7BAFF78
:100FF000031E02D0FB1D13221A70FB1D1B78002B51
:1010000007D1FFF79BF80300032B02D0FB1D022240
:101010001A70FB1D1B78002B07D10F4B9B681B68B8
:10102000002B02D0FB1D06221A70FB1D1B78002B23
:101030000CD1094B9B681A79013AD2B21A71FFF7A9
:10104000DFF9054B01221A76FFF7E0F8FB1D1B784C
:101050001800BD4602B080BD2400002080B584B0D9
:1010600000AF0200BB1D1A80BB1D1B88012B3AD9A3
:10107000BB1D1B88022B36D81D4B1B685A1C1C4BF2
:101080001A60BB1D1B889A1E1A4B9200D358FB6036
:10109000FB68002B1CD0FB685B68002B15D1FB683C
:1010A0001B7A5BB2180000F033F911E0FB681B6893
:1010B00098470300012B05D1FB681B7A5BB218002F
:1010C00000F026F9FB685B68FB60FB68002BEDD144
:1010D000074B1B685A1E064B1A60054B1B68002BFA
:1010E00001D1FFF761F8C046BD4604B080BDC046DF
:1010F00020000020E424000880B584B000AF020086
:10110000BB1D1A80BB1D1B88012B20D9BB1D1B8852
:10111000022B1CD8104B1B685A1C0F4B1A60BB1DAE
:101120001B889A1E0D4B9200D358FB60FB681B7AFC
:101130005BB2180000F0ECF8074B1B685A1E064B18
:101140001A60054B1B68002B01D1FFF72DF8C04634
:10115000BD4604B080BDC04620000020E424000845
:1011600080B582B000AF7860C046BD4602B080BD99
:1011700080B500AF054B1B78002B04D0034B002239
:101180001A7001F029F8C046BD4680BD100000204D
:1011900080B500AF074B1B68002B08D1064B1B68BE
:1011A000002B04D101F014F8044B01221A70C04640
:1011B000BD4680BD14000020180000201000002053
:1011C00080B500AF0B4B1B68002B0FD00A4B1B6880
:1011D0005A1E094B1A60074B1B685A1E054B1A60B2
:1011E000054B1B68002B01D100F0F6FFC046BD4641
:1011F00080BDC046140000200C00002080B500AF68
:1012000000F0E6FF064B1B685A1C054B1A60054BA5
:101210001B685A1C034B1A60C046BD4680BDC046C1
:101220000C0000201400002080B500AF0B4B1B68A1
:10123000002B0FD00A4B1B685A1E094B1A60074B34
:101240001B685A1E054B1A60054B1B68002B01D109
:1012500000F0AAFEC046BD4680BDC0461800002072
:101260000C00002080B500AF00F093FE064B1B6819
:101270005A1C054B1A60054B1B685A1C034B1A601D
:10128000C046BD4680BDC0460C00002018000020AE
:1012900080B584B000AF0200FB1D1A70FB1D002258
:1012A0009A56094B9200D3585A7D0F217B18043A65
:1012B0001A707B181A78054B9200D3589847C0468D
:1012C000BD4604B080BDC046C4240008D425000833
:1012D00080B584B000AF0200FB1D1A70FB1D002218
:1012E0009A56094B9200D3585A7D0F217B18043A25
:1012F0001A707B181A78054B9200D3589847C0464D
:10130000BD4604B080BDC046C4240008D0250008F6
:1013100080B584B000AF0200FB1D1A70FB1D0022D7
:101320009A56154B9200D358FB60FB681A79FB1D47
:1013300000215956114B8900CB589B7D9A4216D2F9
:10134000FB681B79002B06D1FB689B79002B02D12F
:10135000FB6805229A71FB1D1B785BB21800FFF732
:10136000BDF8FB681B790133DAB2FB681A71C0461D
:10137000BD4604B080BDC046D4240008C424000883
:1013800090B585B000AF0200FB1D1A700F243B1909
:1013900000221A70FFF7E6FD031E02D03B1913224C
:1013A0001A700F243B191B78002B06D1FEF7BCFEE8
:1013B000031E02D03B1902221A700F23FB181B7860
:1013C000002B0CD1FB1D1B785BB2012B03DCFB1D3A
:1013D0001B787F2B03D90F23FB1803221A700F22CF
:1013E000BB181B78002B0ED1BC18FB1D1B785BB201
:1013F0001800FFF711FA03002370064B5B7E002BE9
:1014000001D0FEF7D1FE0F23FB181B781800BD4654
:1014100005B090BD2400002080B582B000AFFB1D58
:1014200000221A70FFF79EFD031E02D0FB1D13223F
:101430001A70FB1D1B78002B07D1FEF77FFE0300FF
:10144000012B02D0FB1D02221A70FB1D1B78002B02
:1014500007D10F4B9B681B68002B02D0FB1D062297
:101460001A70FB1D1B78002B0CD1094B9B681A7955
:10147000013AD2B21A71FEF7C3FF054B01221A7668
:10148000FEF7C4FEFB1D1B781800BD4602B080BDF0
:1014900024000020B0B584B000AF0200FB1D1A701C
:1014A0000F243B1900221A70FFF75CFD031E02D0C7
:1014B0003B1913221A700F243B191B78002B07D1FC
:1014C000FEF73CFE0300012B02D03B1902221A70EA
:1014D0000F23FB181B78002B0CD1FB1D1B785BB274
:1014E000012B03DCFB1D1B787F2B03D90F23FB187B
:1014F00003221A700F22BB181B78002B07D11B4B3D
:101500009B681B68002B02D0BB1806221A700F21A3
:101510007B181B78002B21D1144B9B681A79013A58
:10152000D2B21A710D007C18FB1D1B785BB218003B
:10153000FFF772F9030023707B191B78002B07D18A
:10154000FEF75EFF094B01221A76FEF75FFE05E00B
:10155000064B9B681A790132D2B21A710F23FB181D
:101560001B781800BD4604B0B0BDC0462400002062
:1015700080B582B000AFFB1D00221A70FFF7F2FCAD
:10158000031E02D0FB1D13221A70FB1D1B78002BBB
:1015900007D1FEF7D3FD0300012B02D0FB1D022271
:1015A0001A70FB1D1B78002B07D1134B9B681B681F
:1015B000002B02D0FB1D06221A70FB1D1B78002B8E
:1015C00013D10D4B1B695BB21800FFF7BBF8FEF798
:1015D000EBFD094B1A69084B5B699A4205D1064B32
:1015E0001B695BB21800FFF765F8FB1D1B7818003C
:1015F000BD4602B080BDC0462400002090B585B035
:1016000000AF78600F243B1900221A70FFF7AAFC84
:10161000031E02D03B1913221A700F243B191B78AA
:10162000002B06D1FEF780FD031E02D03B190222DB
:101630001A700F23FB181B78002B0ED10A4B1B6965
:10164000012B05DC084B1B695AB27B681A7004E059
:10165000064B00229A567B681A700F23FB181B78E2
:101660001800BD4605B090BD24000020C12400082C
:1016700090B585B000AF02003960FB1D1A700F24D1
:101680003B1900221A70FFF76DFC031E02D03B19B4
:1016900013221A700F243B191B78002B06D1FEF77A
:1016A00043FD031E02D03B1902221A700F23FB18C0
:1016B0001B78002B0CD1FB1D1B785BB2012B03DCCC
:1016C000FB1D1B787F2B03D90F23FB1803221A70F5
:1016D0000F23FB181B78002B0BD1FB1D00229A5601
:1016E000074B9200D3589B7903221340DAB23B6830
:1016F0001A700F23FB181B781800BD4605B090BD6B
:10170000D424000880B584B000AF0200FB1D1A701D
:10171000FB1D00229A56124B9200D3581B68FB60A7
:10172000FB68002B17D0FB1D00229A560C4B920031
:10173000D35800221A60FB685B68BB60094B00222B
:101740009A56FB689A70FB6800225A60BB68FB607F
:10175000FB68002BEFD1C046BD4604B080BDC0463B
:10176000D4240008C124000890B585B000AF020061
:10177000FB1D1A700F243B1900221A70FFF7F2FBB1
:10178000031E02D03B1913221A700F243B191B7839
:10179000002B06D1FEF7C8FC031E02D03B19022223
:1017A0001A700F22BB181B78002B06D1FB1D1B786B
:1017B000002B02D0BB1803221A700F217B181B7854
:1017C000002B56D1FB1D1A782D4B9200D358BB60CD
:1017D0007B181B78002B12D1BB6802229A56294B2A
:1017E0001B785BB29A4206D1274B1B685A7DBB68B7
:1017F0001B789A4203D90F23FB1801221A700F237A
:10180000FB181B78002B34D11F4B1B695AB2BB68E5
:101810009A701D4B9B681A68BB685A601A4B9B688C
:10182000BA681A60184B9B685A79BB685A70164B95
:101830009B685B795B08DAB2BB681B789A4218D266
:10184000BB681B785BB2DB185AB2BB681B780F49C8
:10185000C95C0139C8B20D49C8540C49CB5C5BB2B4
:1018600001210B405BB213435AB2074B9B68D2B2C3
:101870005A710F23FB181B781800BD4605B090BDA8
:10188000E8240008C1240008240000204C000020A7
:1018900090B585B000AF0200FB1D1A700F243B19F4
:1018A00000221A70FFF75EFB031E02D03B191322C1
:1018B0001A700F243B191B78002B06D1FEF734FC5D
:1018C000031E02D03B1902221A700F22BB181B788C
:1018D000002B06D1FB1D1B78002B02D0BB18032266
:1018E0001A700F217B181B78002B3AD1FB1D1A7838
:1018F0001F4B9200D358BB607B181B78002B09D17B
:101900001C4B1B685A7DBB681B789A4202D97B1816
:1019100001221A700F217B181B78002B08D1154B60
:101920009B681B68BA689A4202D07B1805221A701D
:101930000F23FB181B78002B13D10E4B9B68BA6842
:1019400052785A710B4B9B68BA6852681A60BB6830
:1019500000225A60084B00229A56BB689A70FEF724
:1019600023FC0F23FB181B781800BD4605B090BD63
:10197000E824000824000020C124000880B584B0B9
:1019800000AF78607B681B68FB60FB689B68BB608E
:10199000BB681B68BA6810009847C046BD4604B0D3
:1019A00080BD90B585B000AF02003960FB1D1A7094
:1019B0000F243B1900221A70FFF7D4FA031E02D03D
:1019C0003B1913221A700F243B191B78002B06D1E8
:1019D000FEF7AAFB031E02D03B1902221A700F2247
:1019E000BB181B78002B06D1FB1D1B78002B02D0E7
:1019F000BB1803221A700F23FB181B78002B17D17A
:101A0000FB1D1A780E4B9200D358BB60BB681B6855
:101A10001B681A683B685A60BB681B681B685A6879
:101A20003B681A60BB681B681B689A683B689A60D1
:101A30000F23FB181B781800BD4605B090BDC046AB
:101A40006C25000890B587B000AF02003960FB1D1F
:101A50001A7017243B1900221A70FFF783FA031E2D
:101A600002D03B1913221A7017243B191B78002B44
:101A700006D1FEF759FB031E02D03B1902221A7051
:101A80001722BB181B78002B06D1FB1D1B78002BDF
:101A900002D0BB1803221A701723FB181B78002BE7
:101AA00026D1FB1D1A78164B9200D358FB60FB68B9
:101AB0001B7D012B18D1FB681B693B61FB681B6810
:101AC0001B681B69BB603A69BB689A4206D2FB6817
:101AD0001B681B685B683A69D3183B613A69BB684D
:101AE000D21A3B681A6003E01723FB1805221A700C
:101AF0001723FB181B781800BD4607B090BDC046E1
:101B00006C25000890B589B000AFB9607A600F23EA
:101B1000FB18021C1A701F243B1900221A70FFF7D1
:101B200021FA031E02D03B1913221A701F243B19FD
:101B30001B78002B06D1FEF7F7FA031E02D03B19E3
:101B400002221A701F22BB181B78002B07D10F230B
:101B5000FB181B78002B02D0BB1803221A701F2120
:101B60007B181B78002B0ED10F23FB181A78364BED
:101B70009200D3581B681B685B68BA689A4202D906
:101B80007B1808221A701F23FB181B78002B1DD10D
:101B90007B68002B1AD00F217B181A782A4B9200F1
:101BA000D3581B681B685B687A689A420AD87B180E
:101BB0001A78254B9200D3581B681B689B687A687B
:101BC0009A4203D21F23FB1808221A701F23FB1806
:101BD0001B78002B30D10F23FB181A781A4B920078
:101BE000D3587B617B691B7D002B21D17B691B68EE
:101BF0001B683B613B691B69BA68D318BB613B69D1
:101C00005B68BA699A4205D93B695B68BA69D31ABD
:101C1000013BBB617B69BA691A617B697A68DA60EA
:101C20007B6901221A757B691800FEF79FFF03E0AC
:101C30001F23FB1807221A701F23FB181B7818009C
:101C4000BD4609B090BDC0466C25000890B587B070
:101C500000AFB9607A600F23FB18021C1A701724BA
:101C60003B1900221A70FFF77DF9031E02D03B19C1
:101C700013221A7017243B191B78002B06D1FEF78C
:101C800053FA031E02D03B1902221A701722BB1806
:101C90001B78002B07D10F23FB181B78002B02D0D9
:101CA000BB1803221A7017217B181B78002B0ED14A
:101CB0000F23FB181A782C4B9200D3581B681B6813
:101CC0005B68BA689A4202D97B1808221A701723F7
:101CD000FB181B78002B1DD17B68002B1AD00F211D
:101CE0007B181A78204B9200D3581B681B685B68DE
:101CF0007A689A420AD87B181A781B4B9200D358FC
:101D00001B681B689B687A689A4203D21723FB18EA
:101D100008221A701723FB181B78002B1CD10F23E5
:101D2000FB181A78104B9200D3583B613B691B7D1E
:101D3000002B0DD13B69BA681A613B697A68DA6099
:101D40003B6901221A753B691800FEF70FFF03E09B
:101D50001723FB1807221A701723FB181B7818008B
:101D6000BD4607B090BDC0466C25000890B585B053
:101D700000AF0200FB1D1A700F243B1900221A70DD
:101D8000FFF7F0F8031E02D03B1913221A700F243C
:101D90003B191B78002B06D1FEF7C6F9031E02D0B3
:101DA0003B1902221A700F22BB181B78002B06D198
:101DB000FB1D1B78002B02D0BB1803221A700F23C7
:101DC000FB181B78002B15D1FB1D1A780D4B9200C8
:101DD000D358BB60BB681B7D012B07D1BB681800C3
:101DE000FEF732FFBB6800221A7503E00F23FB18D1
:101DF00005221A700F23FB181B781800BD4605B08A
:101E000090BDC0466C25000880B500AF094B180096
:101E1000FEF752FF084B1B685A1C074B1A60074B12
:101E20005B7E012B01D1FEF7BFF901231800BD46EF
:101E300080BDC0465400002078000020240000200F
:101E400080B500AF0220FFF709F9034B08221A61A1
:101E5000C046BD4680BDC0460018024080B500AFF8
:101E6000FFF7D2FFC046BD4680BDC04600B515484D
:101E7000002101764176FFF7E3FF1248017E002939
:101E800009D0006800F082F90120FEF703FA0D483E
:101E9000006800F08CF900BD00B50A480021017609
:101EA0004176FFF7DBFF0748017E002909D0006873
:101EB00000F06CF90120FEF7EDF90248006800F02F
:101EC00076F900BD2400002080B500AFA023DB051B
:101ED00003220321180000F015FF1B4B1A6C1A4B4C
:101EE00001210A431A64184B1B6C184A8023D358EB
:101EF00016490822134380228B50154A9823D35841
:101F000013490222934398228B50114A9823D358A5
:101F10000F490222134398228B500C4B1A680B4B2B
:101F200008218A431A60094B5A68084B08210A4362
:101F30005A600321062000F055FC062000F03CFC0E
:101F4000C046BD4680BDC046001002400018024099
:101F50000000014080B500AF034A80234021D150EA
:101F6000C046BD4680BDC04600E100E080B500AF80
:101F7000024B40221A60C046BD4680BD00E100E031
:101F800080B500AF0321062000F09AFCC046BD4694
:101F900080BD80B500AF034A80234021D150C046A8
:101FA000BD4680BD00E100E080B500AF024B40229D
:101FB0001A60C046BD4680BD00E100E080B588B033
:101FC00000AF0200FB1D1A70FB1D00229A56174B32
:101FD0009200D358FB61FB691B68BB61FB695B68BE
:101FE0007B61FB699B68203B9B083B613B699B00D5
:101FF0007A69D318FB60FA68BB691A62FB69DB7DFA
:10200000022B01D10A4A00E00A4AFB6814331A6025
:10201000FB69DA68FB6818331A60FB681C3380229E
:1020200052041A60C046BD4608B080BDC4240008F2
:102030006F2300080D24000880B500AF00F00AF8F7
:1020400000F00DF8C046BD4680BD80B500AF72B649
:1020500030BFFDE780B500AFC046BD4680BD80B54E
:1020600082B000AF00F0E6F8FFF72EFFFFF788FF21
:1020700005235B420021180000F090FC03237B60E5
:102080007B6883F31488C046BFF36F8FC046C04699
:10209000BD4602B080BD80B584B000AF0200FB1D1C
:1020A0001A700F217B1800221A707B181B781800F9
:1020B000BD4604B080BDC046EFF309800FC8182BA1
:1020C0002BD2082B00D272B683B0019402957446CD
:1020D0000094124C002525766576114C9B00E35840
:1020E0009847EFF3098420600C4C257E002D0ED01C
:1020F00000200224254204D00848006800F020F89F
:102100000120FEF7C7F80548006800F02CF8009C95
:10211000A646029D019C03B062B6704724000020D1
:1021200070250008EFF3088080F30988022080F30F
:102130001488BFF36F8F0148004700008932000800
:102140000168019A0A60029A4A608E60CF60424636
:102150000A614A464A6152468A615A46CA61EFF3A9
:1021600009820A62704701680A6801924A6802920D
:102170008E68CF680A6990464A6991468A69924694
:10218000CA6993460A6A82F30988704701680C603D
:102190004D608E60CF6042460A614A464A615246AF
:1021A0008A615A46CA61EFF309820A627047016880
:1021B0000C684D688E68CF680A6990464A699146F6
:1021C0008A699246CA6993460A6A82F30988704707
:1021D000402080F311887047C02080F31188704739
:1021E00080B582B000AF786039607B685A1E80236A
:1021F0005B049A4201D3052316E03B68032B01D907
:10220000082311E00A4B7A68013A5A603A680123C0
:102210005B421100180000F0B1FC054B00229A60EF
:10222000034B07221A6000231800BD4602B080BD90
:1022300010E000E080B500AF094B1B68FA22910066
:10224000180000F071FA030003211800FFF7C8FF1F
:10225000031E01D0C046FDE7C046BD4680BDC04656
:102260000000002080B582B000AF0200FB1D1A7094
:10227000FDF764FF031E01D1FFF7DEFEFB1D1B7897
:102280005BB2180000F00FF8C046BD4602B080BD3A
:10229000EFF30583002B02D1122312DF704700B544
:1022A000FEF7FCFD00BDEFF30583002B02D10923EF
:1022B00009DF704700B5FEF70BFE00BDEFF30583A5
:1022C000002B02D10A230ADF704700B5FEF73AFE61
:1022D00000BDEFF30583002B02D1012301DF70471E
:1022E00072B600B5FEF744FF62B600BDEFF305839A
:1022F000002B02D1032303DF704772B600B5FEF74F
:1023000047FF62B600BDEFF30583002B02D1072320
:1023100007DF704772B600B5FEF752FF62B600BD28
:10232000EFF30583002B02D1052305DF704772B65A
:1023300000B5FEF763FF62B600BDEFF30583002B27
:1023400002D1002300DF704772B600B5FEF76CFFC4
:1023500062B600BDEFF30583002B02D1022302DF3A
:10236000704772B600B5FEF77DFF62B600BDEFF3B1
:102370000583002B02D1042304DF704772B600B539
:10238000FEF724FA62B600BDEFF30583002B02D1FD
:102390000C230CDF704700B5FEF7F2FF00BDEFF332
:1023A0000583002B02D1082308DF704700B5FFF733
:1023B00033F800BDEFF30583002B02D10E230EDFAF
:1023C000704700B5FFF766F800BDEFF30583002BFB
:1023D00002D1142314DF704700B5FFF7C9F800BD20
:1023E000EFF30583002B02D1102310DF704700B5F7
:1023F000FFF704F900BDEFF30583002B02D117238B
:1024000017DF704700B5FFF733F900BDEFF3058321
:10241000002B02D1062306DF704772B600B5FEF727
:10242000BBF962B600BDEFF30583002B02D10B238D
:102430000BDF704700B5FFF797F900BDEFF3058399
:10244000002B02D10D230DDF704700B5FFF720FAF6
:1024500000BDEFF30583002B02D10F230FDF704780
:1024600000B5FFF79EFA00BDEFF30583002B02D104
:10247000112311DF704700B5FFF7E4FA00BDEFF359
:102480000583002B02D1132313DF704700B5FFF73C
:1024900039FB00BDEFF30583002B02D1152315DFB7
:1024A000704700B5FFF7D2FB00BDEFF30583002BAB
:1024B00002D1162316DF704700B5FFF757FC00BDA9
:1024C000FFFF0000042500081C2500083425000833
:1024D000EC240008CC000020F8000020240100209B
:1024E000A00000204C250008700000207C00002087
:1024F000440100202C010000792A0008000000009F
:1025000003000100A8000020000400202C010000AE
:10251000F92500080000000000010100D40000209F
:10252000000600202C0100008526000800000000A5
:10253000010201000001002000080020C800000086
:10254000C92600080000000002040102000000008B
:102550000000000002000000730E000800000000F0
:10256000540000207D190008582500082C01002087
:102570002912000871110008651200089111000865
:10258000CD070008FD11000899070008C1110008D7
:1025900019140008D10E0008450F0008691700083B
:1025A000811300089118000895140008A319000869
:1025B000FD150008451A00089D0E0008051B0008BF
:1025C000711500084D1C00086D1D000871160008EB
:1025D0006D1F0008551F0008E4260008EC260008BF
:1025E000F826000804270008000100000100000090
:0825F000FFFF000001000000E4
:1025F80080B500AF044B0021180000F041FCFFF744
:10260800CAFEC046BD4680BD0008005080B586B0F1
:1026180000AFA023DB0501220521180000F06EFBA6
:10262800144B01220021180000F068FB3B1D842296
:1026380092035A603B1D00229A603B1D0022DA601B
:102648003B1D08221A603A1DA023DB051100180063
:1026580000F062FC074B0021180000F011FC064B4B
:102668001B785BB21800FFF7F9FD00231800BD4680
:1026780006B080BD000800500B27000880B500AFE9
:102688000D4B1B68002B0AD10C4B1B78642264216C
:102698001800FFF7F0FE084B01221A6007E0074B0D
:1026A8001B781800FFF7FDFE034B00221A60FFF7A6
:1026B80072FEC046BD4680BDC8080020EA25000855
:1026C80080B500AF044B1B785BB21800FFF758FECB
:0C26D800C046BD4680BDC046E925000894
:1026E400626C696E6B000000726561645F62757490
:1026F400746F6E006973725F627574746F6E00003C
:102704002A69646C652A00000001000000000000D2
:102714008A2D0008A82D0008DC2D0008FA2D0008D9
:042724002E2E00084D
:10272800002934D00123002210B488422CD301247C
:102738002407A14204D2814202D209011B01F8E711
:10274800E400A14204D2814202D249005B00F8E7CA
:10275800884201D3401A1A434C08A04202D3001BF6
:102768005C0822438C08A04202D3001B9C08224329
:10277800CC08A04202D3001BDC082243002803D067
:102788001B0901D00909E3E7100010BC704701B527
:10279800002000F00BF802BD0029F8D003B5FFF7C0
:1027A800C1FF0EBC4243891A1847C0467047C0464D
:1027B80080B582B000AF0200FB1D1A70FB1D1B78AC
:1027C8001A001F23134001229A40034B1A60C04687
:1027D800BD4602B080BDC04600E100E090B583B0C0
:1027E80000AF02003960FB1D1A70FB1D1B787F2BA0
:1027F80032D92F4AFB1D1B7819000F230B40083BC9
:102808009B0806339B00D31804331B68FA1D127803
:10281800110003220A40D200FF2191400A00D2434E
:102828001A4011003B689B01FF221A40FB1D1B78D0
:10283800180003230340DB009A401D48FB1D1B784A
:102848001C000F232340083B9B080A4306339B00C8
:10285800C31804331A6027E0164AFB1D1B785BB2C5
:102868009B08C0339B009B58FA1D12781100032265
:102878000A40D200FF2191400A00D2431A401100B9
:102888003B689B01FF221A40FB1D1B78180003239D
:102898000340DB009A400748FB1D1B785BB29B088E
:1028A8000A43C0339B001A50C046BD4603B090BDD2
:1028B80000ED00E000E100E090B583B000AF020059
:1028C8003960FB1D1A70FB1D1B787F2B32D92F4AEC
:1028D800FB1D1B7819000F230B40083B9B08063390
:1028E8009B00D31804331B68FA1D127811000322C9
:1028F8000A40D200FF2191400A00D2431A40110039
:102908003B689B01FF221A40FB1D1B78180003231C
:102918000340DB009A401D48FB1D1B781C000F2359
:102928002340083B9B080A4306339B00C318043323
:102938001A6027E0164AFB1D1B785BB29B08C03360
:102948009B009B58FA1D1278110003220A40D200FE
:10295800FF2191400A00D2431A4011003B689B01B5
:10296800FF221A40FB1D1B78180003230340DB00DD
:102978009A400748FB1D1B785BB29B080A43C0338B
:102988009B001A50C046BD4603B090BD00ED00E064
:1029980000E100E090B583B000AF02003960FB1D94
:1029A8001A70FB1D1B787F2B32D92F4AFB1D1B7811
:1029B80019000F230B40083B9B0806339B00D318D4
:1029C80004331B68FA1D1278110003220A40D20052
:1029D800FF2191400A00D2431A4011003B689B0135
:1029E800FF221A40FB1D1B78180003230340DB005D
:1029F8009A401D48FB1D1B781C000F232340083BF1
:102A08009B080A4306339B00C31804331A6027E067
:102A1800164AFB1D1B785BB29B08C0339B009B5872
:102A2800FA1D1278110003220A40D200FF219140BA
:102A38000A00D2431A4011003B689B01FF221A404A
:102A4800FB1D1B78180003230340DB009A4007484E
:102A5800FB1D1B785BB29B080A43C0339B001A50CE
:102A6800C046BD4603B090BD00ED00E000E100E0C7
:102A780080B500AF20BFC046C046FBE780B500AFB9
:102A880001BEC046FDE780B500AF02BEC046FDE707
:102A980080B500AF03BEC046FDE780B500AF04BEF9
:102AA800C046FDE780B500AF05BEC046FDE780B56E
:102AB80000AF06BEC046FDE780B582B000AF164A3B
:102AC800164BD31A9B103B6000237B6007E0134B27
:102AD8007A689200D35898477B6801337B607A689C
:102AE8003B689A42F3D30E4A0E4BD31A9B103B60B5
:102AF80000237B6007E00B4B7A689200D358984715
:102B08007B6801337B607A683B689A42F3D3C0469E
:102B1800C046BD4602B080BD2833000824330008F3
:102B2800283300082833000880B582B000AF0C4A6B
:102B38000C4BD31A9B103B603B687B6008E07B68BA
:102B48005A1E084B9200D35898477B68013B7B601C
:102B58007B68002BF3D1C046C046BD4602B080BD9D
:102B6800283300082833000880B500AFC046BD46AA
:102B780080BD000090B583B000AF02003960FB1D36
:102B88001A70FB1D1B787F2B32D92F4AFB1D1B782F
:102B980019000F230B40083B9B0806339B00D318F2
:102BA80004331B68FA1D1278110003220A40D20070
:102BB800FF2191400A00D2431A4011003B689B0153
:102BC800FF221A40FB1D1B78180003230340DB007B
:102BD8009A401D48FB1D1B781C000F232340083B0F
:102BE8009B080A4306339B00C31804331A6027E086
:102BF800164AFB1D1B785BB29B08C0339B009B5891
:102C0800FA1D1278110003220A40D200FF219140D8
:102C18000A00D2431A4011003B689B01FF221A4068
:102C2800FB1D1B78180003230340DB009A4007486C
:102C3800FB1D1B785BB29B080A43C0339B001A50EC
:102C4800C046BD4603B090BD00ED00E000E100E0E5
:102C580080B582B000AF78607A68A023DB059A421D
:102C680006D1204B5A6B1F4B01210A435A6335E0AA
:102C78007B681D4A934206D11A4B5A6B194B0221A5
:102C88000A435A632AE07B68184A934206D1154BD7
:102C98005A6B144B04210A435A631FE07B68144A99
:102CA800934206D10F4B5A6B0E4B08210A435A63C5
:102CB80014E07B680F4A934206D10A4B5A6B094BC2
:102CC80010210A435A6309E07B680B4A934205D1F5
:102CD800044B5A6B034B20210A435A63C046BD4636
:102CE80002B080BD001002400004005000080050EF
:102CF800000C0050001000500014005080B584B043
:102D080000AF786008001100FB1C021C1A70BB1C85
:102D18000A1C1A707A68A023DB059A4216D07B68D1
:102D2800514A934212D07B68504A93420ED07B6836
:102D38004F4A93420AD07B684E4A934206D07B683A
:102D48004D4A934202D001235B4289E0FB1C1B7869
:102D58000F2B02D901235B4282E07B681800FFF742
:102D680077FFFB1C1B785B0003229A401300FB6073
:102D7800BB1C1B78042B71D89A00404BD3181B68D6
:102D88009F467B681B68FA68D2431A407B681A60C2
:102D98007B68DB68FA68D2431A407B68DA605EE0D9
:102DA8007B681B68FA68D2431A407B681A607B68A4
:102DB8001B68FA1C12785200012191400A001A433C
:102DC8007B681A607B68DB68FA68D2431A407B68C4
:102DD800DA6044E07B681B68FA68D2431A407B6873
:102DE8001A607B68DB68FA68D2431A407B68DA604D
:102DF80035E07B681B68FA68D2431A407B681A6022
:102E08007B68DB68FA68D2431A407B68DA607B68C3
:102E1800DB68FA1C12785200012191400A001A431B
:102E28007B68DA601BE07B681B68FA68D2431A404B
:102E38007B681A607B68DB68FA68D2431A407B6853
:102E4800DA607B68DB68FA1C1278520001320121D3
:102E580091400A001A437B68DA6000E0C04600230C
:102E68001800BD4604B080BD0004005000080050A2
:102E7800000C0050001000500014005014270008E7
:102E880080B582B000AF78600A00FB1C1A707A68BF
:102E9800A023DB059A4213D07B681A4A93420FD0CD
:102EA8007B68194A93420BD07B68184A934207D033
:102EB8007B68174A934203D07B68164A93421BD11A
:102EC800FB1C1B780F2B19D87B681B69FA1C12781E
:102ED800012191400A00134007D0FB1C1B781033D6
:102EE80001229A407B689A6109E0FB1C1B78012249
:102EF8009A407B689A6102E0C04600E0C046BD4641
:102F080002B080BD0004005000080050000C0050C2
:102F1800001000500014005080B586B000AF7860F3
:102F2800396000237B614DE13B681B6801217A69A8
:102F380091400A001340FB60FB68002B00D13EE182
:102F48003B685B6803221340012B05D03B685B6834
:102F580003221340022B30D17B689B683B617B695D
:102F68005B0003229A401300DA433B6913403B613C
:102F78003B68DA687B695B009A4013003A6913433F
:102F88003B617B683A699A607B685B683B610122B8
:102F98007B699A401300DA433B6913403B613B6805
:102FA8005B681B0901221A407B699A4013003A6941
:102FB80013433B617B683A695A603B685B6803224C
:102FC8001340032B17D07B68DB683B617B695B0090
:102FD80003229A401300DA433B6913403B613B6884
:102FE8009A687B695B009A4013003A6913433B6116
:102FF8007B683A69DA603B685B6803221340022BFE
:1030080023D17B69DA087B6808329200D3583B6188
:103018007B69072213409B000F229A401300DA4372
:103028003B6913403B613B681A697B6907210B4088
:103038009B009A4013003A6913433B617B69DA08A5
:103048007B68083292003969D1507B681B683B6104
:103058007B695B0003229A401300DA433B69134003
:103068003B613B685B6803221A407B695B009A40BE
:1030780013003A6913433B617B683A691A603B68FD
:103088005A68C0239B02134000D198E0534A7B69D9
:103098009B0818339B009B583B617B6903221340B4
:1030A800DB000F229A401300DA433B6913403B616F
:1030B8007A68A023DB059A4219D07B68484A934274
:1030C80013D07B68474A93420DD07B68464A9342A7
:1030D80007D07B68454A934201D1042308E00523C1
:1030E80006E0032304E0022302E0012300E00023BA
:1030F8007A6903210A40D20093403A6913433B613D
:1031080036497B699B0818339B003A695A50334B00
:103118001B683B61FB68DA433B6913403B613B68D2
:103128005A6880235B03134003D03A69FB68134352
:103138003B612A4B3A691A60284B5B683B61FB6824
:10314800DA433B6913403B613B685A6880239B0321
:10315800134003D03A69FB6813433B611F4B3A693C
:103168005A601E4A8423D3583B61FB68DA433B69A3
:1031780013403B613B685A6880239B02134003D08D
:103188003A69FB6813433B61144984223B698B50BD
:10319800124A8023D3583B61FB68DA433B691340EA
:1031A8003B613B685A6880235B02134003D03A694D
:1031B800FB6813433B61094980223B698B507B695B
:1031C80001337B613B681A687B69DA40131E00D0C3
:1031D800AAE6C046C046BD4606B080BD00180240FB
:1031E8000004005000080050000C0050001000506F
:1031F800F0B505000F2A33D90324030026000B433A
:103208001E401C4237D11500103D2D0903000C004B
:10321800AC462F013F1865685D60A5689D60E5684C
:10322800DD60256810341D601D001033BD42F2D1E9
:1032380065460F230C2401352D0149191340451902
:1032480014421AD08C59AC5104369C1B032CF9D863
:10325800043B9B0801339B00ED18C91803231A404F
:10326800561E002A06D00023CC5C1A00EC54013309
:103278009642F9D1F0BD561EF5E71A00F0E7C046B0
:1032880080B584B000AF104BBB60104B7B60BB684F
:103298003B6004E03B681A1D3A6000221A607A68B5
:1032A8003B689A42F6D8C046FFF706FCFFF7AEF92E
:1032B8000300FB60FFF738FCFB681800FFF7E0FF2E
:1032C800C046BD4604B080BDC8080020CC08002018
:1032D80080B584B000AF0E4BFB600E4BBB600E4B4D
:1032E8007B60BB683B6007E0FA68131DFB603B68C6
:1032F800191D396012681A607A683B689A42F3D8D7
:10330800C046FFF731FCC046BD4604B080BDC0468C
:0C331800283300080000002044010020C1
:04332400D932000892
:103328000024F4000300000000FF0000000000007B
:103338000000000000000000000000000000000085
:103348000000000000000000EC240008000000005D
:10335800A0000020FFFFFFFFFFFFFFFF00000000AD
:103368000000000000000000000000000000000055
:103378000000000001000000FFFF00000100000045
:103388000000000000000000000000000000000035
:103398000300FF0000000000000000000000000023
:1033A8000000000000000000000000000000000015
:1033B8000000000000000000000000000000000005
:1033C80000000000000000000000000000000000F5
:1033D80000000000000000000000000000000000E5
:1033E80000000000000000000000000000000000D5
:1033F80000010000000000000000000000000000C4
:1034080000000000000000000000000000000000B4
:10341800000000000000000000000000000204009E
:103428000000000000000000000000000000000094
:103438000000000000000000000000000000000084
:1034480000000000000000000004000060250008E3
:103458000000000000000000000000000000000064
:043468000000000060
:10346C000000000000000000000000000000000050
:10347C000000000000000000000000000000000040
:10348C000000000000000000000000000000000030
:10349C000000000000000000000000000000000020
:0400000508002125A9
:00000001FF
